:020000040800F2
:100000003809002031160008850200088702000820
:100010008B0200088F020008930200080000000015
:10002000000000000000000000000000970200082F
:1000300099020008000000009B0200084916000811
:100040004B1600084B1600084B1600084B1600080C
:100050004B1600084B1600084B1600084B160008FC
:100060004B1600084B1600084B1600084B160008EC
:100070004B1600084B1600084B1600084B160008DC
:100080004B1600084B1600084B1600084B160008CC
:100090004B1600084B1600084B1600084B160008BC
:1000A0004B1600084B1600084B1600084B160008AC
:1000B0004B160008B90500084B1600084B1600083F
:1000C0004B1600084B1600084B1600084B1600088C
:1000D0004B1600084B3700084B160008C5370008C0
:1000E0004B1600084B1600084B16000800F002F8EB
:1000F00000F03FF80AA090E8000C82448344AAF183
:100100000107DA4501D100F034F8AFF2090EBAE880
:100110000F0013F0010F18BFFB1A43F0010318473B
:100120002090000040900000103A24BF78C878C1A9
:10013000FAD8520724BF30C830C144BF04680C60ED
:10014000704700000023002400250026103A28BF35
:1001500078C1FBD8520728BF30C148BF0B60704739
:10016000642906F03982002070471FB51FBD10B505
:1001700010BD06F001FC1146FFF7F7FF00F008F88C
:1001800006F01FFC03B4FFF7F2FF03BC03F018FAFC
:1001900003F010FA00F072F94FF4164003F01FFA62
:1001A0004FF4164003F067FA00F052FA03F088F9B2
:1001B00000F0FEFD41F61F4141F2873000F07AF970
:1001C000472140F2E73000F0A2F900F0C1FB0A201D
:1001D00003F0D8F900F08EFC44E001F079F801F06A
:1001E00073F92148008800F40040F0B11F48C06B4B
:1001F000012814D1F2211E4801F0B5FB4FF4C8517B
:100200001B4801F0B2FB03211A4801F0AEFB4FF48A
:10021000FA7003F092F9184800F01AFE02E016484E
:1002200000F016FE002010490880134800F010FE70
:1002300001F021F800F0A4FF0821002000F061FA8D
:100240000E4908600E48006860B1F221084801F0CC
:100250008AFB4FF4C851064801F085FB032105488D
:1002600001F081FBB9E7000090000020F8000020B9
:1002700000080140000C014038010020000000206F
:100280000C000020704700BFFEE700BFFEE700BF84
:10029000FEE700BFFEE77047704770470CB50020CF
:1002A000019000906C48006840F480306A49086012
:1002B00000BF6948006800F4003000900198401CBD
:1002C0000190009818B90198B0F5A06FF1D162487B
:1002D000006800F4003010B10120009001E000201F
:1002E00000900098012843D15C48006840F010005D
:1002F0005A4908600846006820F003000860084674
:10030000006840F002000860534840685249486065
:100310000846406848600846406840F4806048608D
:100320000846406820F47C1048600846406840F465
:10033000E81048600846006840F08070086000BF20
:100340004548006800F000700028F9D04248406835
:1003500020F00300404948600846406840F0020031
:10036000486000BF3C48406800F00C000828F9D104
:100370000CBD10B5FFF792FF10BD10B536480068F0
:1003800040F001003449086008464068344908409C
:100390003149486008460068324908402E490860E3
:1003A0000846006820F4802008600846406820F471
:1003B000FE0048604FF41F008860FFF7DAFF4FF03F
:1003C00000602949086010BD10B5002100200022FE
:1003D000214B5B6803F00C0121B1042906D00829E8
:1003E00028D107E0214B224C236027E01F4B204CF3
:1003F000236023E0184B5B6803F47010164B5B68B6
:1004000003F48032022303EB904022B9194B43439B
:10041000174C23600DE0104B5B6803F4003323B1ED
:10042000144B4343124C236003E0104B4343104CE6
:10043000236003E00D4B0E4C236000BF00BF064B52
:100440005B68C3F303130C4CE15C094B1B68CB40A6
:10045000074C236010BD0000001002400020024045
:100460000000FFF8FFFFF6FE08ED00E000127A0042
:100470002000002000093D002400002008B50121D3
:10048000102001F07FFC4FF40050ADF80000102068
:100490008DF8030003208DF802006946044801F03E
:1004A000B5F94FF40051024801F05DFA08BD0000B3
:1004B000001001407FB505460C460121022001F0E5
:1004C0006EFCADF80850ADF804400020ADF80A000D
:1004D000ADF8060001A9524802F0B8F90122114610
:1004E0004F4802F02AFD1D208DF8000000208DF8F5
:1004F000010002208DF8020001208DF803006846FB
:1005000001F0BBF80121464802F0FCFC7FBD30B58C
:1005100089B005460C460121042001F040FC012170
:10052000092001F02FFC8020ADF8200018208DF864
:10053000230003208DF8220008A93A4801F066F94B
:10054000ADF81850ADF814400020ADF81A00ADF821
:10055000160005A9344802F079F901221146324803
:1005600002F0EBFC1E208DF8100000208DF8110029
:1005700001208DF8120000208DF8130004A801F06E
:100580007CF86020ADF800000120ADF802000020EA
:10059000ADF808006946244802F0D7F9082122483E
:1005A00002F0E9FD0021204802F046FF01211E482B
:1005B00002F0A8FC09B030BD1FB50121184802F0B7
:1005C0006AFF00282BD00121154802F075FF012297
:1005D00016480368164800691549C968CDE9023212
:1005E000CDE90010124883684268016811A005F047
:1005F000B3FF1E2002F0A1FF002214480069134936
:10060000C968CDE9010211480392009183684268EC
:10061000016808A005F0A0FF0A2002F08EFF1FBDB0
:1006200000040040000C01400008004000000020D1
:10063000E400002025640A25640A25640A25640A6A
:1006400025640A25640A256400000000C00000201B
:1006500000B587B001214FF4017001F093FB4FF416
:10066000004001F0F3FA0120ADF8040000208DF8FD
:10067000070001A92E4801F0C9F82E4801F0EAFD53
:10068000002002908DF80C008DF80D004FF46020D2
:1006900004900020059001208DF8180002A925483B
:1006A00001F0FFFD0121234801F027FE214801F060
:1006B00046FE00BF1F4801F047FE0028FAD11D4842
:1006C00001F04CFE00BF1B4801F04DFE0028FAD19E
:1006D00007B000BD10B50446072301222146154886
:1006E00001F077FE0121134801F047FE00BF02210F
:1006F000104801F0B3FF0028F9D00E4801F0D0FEF9
:1007000010BD2DE9F04107460C460025002608E003
:100710003846FFF7DFFF0544052002F00EFF701C8E
:10072000C6B2A642F4DBB5FBF4F080B2BDE8F081BE
:10073000000801400024014008B50720009002E0B5
:100740000098401E009000980028F9D108BD10B50F
:100750004FF40070E649086040100860FFF7ECFFB6
:10076000E3480838006808B9012000E0002000F4E0
:10077000007008B1002010BD4FF40070DC49091D65
:100780000860FFF7D9FFDA480838006800F4007005
:1007900008B10020EFE74FF40070D549091D08604B
:1007A000FFF7CAFF0120E6E710B54FF48070D0498B
:1007B000091D0860FFF7C0FF4FF40070CC49091D08
:1007C0000860FFF7B9FF4FF48070C9490860FFF770
:1007D000B3FF4FF40070C6490860FFF7ADFF10BDCE
:1007E00010B54FF48070C249091D0860FFF7A4FFDF
:1007F0004FF40070BE49091D0860FFF79DFF4FF4DC
:100800008070BB490860FFF797FF4FF48070B849CC
:10081000091D0860FFF790FF10BD10B54FF4807000
:10082000B349091D0860FFF787FF4FF40070B04916
:100830000860FFF781FF4FF48070AD490860FFF753
:100840007BFF4FF48070AA49091D0860FFF774FF11
:1008500010BD10B54FF48070A549091D0860FFF761
:100860006BFF4FF40070A2490860FFF765FF4FF47B
:1008700080709F490860FFF75FFF9D480838006857
:1008800000F4007030B14FF480709949091D086080
:10089000002010BD4FF480709549091D08600120AB
:1008A000F7E770B5044608251DE04FF480709049C5
:1008B000091D0860FFF740FF04F0800020B14FF4ED
:1008C00000708B49086004E04FF400708849091DEE
:1008D00008606006040EFFF72FFF4FF48070844914
:1008E0000860FFF729FF2800A5F10101CDB2DCD196
:1008F0004FF480707E49091D086070BD70B50825F1
:100900000024A8017A49086016E06006040E4FF43E
:1009100080707749091D0860FFF70EFF4FF4807063
:1009200073490860FFF708FF71480838006800F451
:10093000007008B144F001042800A5F10101CDB216
:10094000E3D14FF480706A49091D0860204670BDEC
:1009500008B50121082001F015FA4FF44070ADF8F8
:10096000000002208DF8020014208DF80300694673
:100970005F48103800F04AFF08BD2DE9F0410546F8
:100980000E4617469846FFF7E2FE10B90020BDE874
:10099000F081002141EA4501C8B2FFF782FFFFF76D
:1009A00058FF18B9FFF700FF0020F0E73046FFF7C7
:1009B00078FFFFF74EFF00240BE018F80400FFF764
:1009C00070FFFFF746FF18B9FFF7EEFE0020DEE7E5
:1009D000641CBC42F1DBFFF7E7FE0120D7E72DE9FD
:1009E000F04104460D4616461F463B463246294610
:1009F0002046FFF7C2FF10B10020BDE8F0814FF0A4
:100A0000FF30FAE72DE9F04105460F4614461E4631
:100A1000FFF79DFE10B90020BDE8F081002141EAFA
:100A20004501C8B2FFF73DFFFFF713FF18B9FFF705
:100A3000BBFE0020F0E73846FFF733FFFFF709FF62
:100A4000FFF785FE012101EB4501C8B2FFF729FF41
:100A5000FFF7FFFE0CE0FFF751FF3070012C02D1D1
:100A6000FFF7DBFE01E0FFF7BBFE761C601EC4B2A1
:100A7000002CF0D1FFF798FE0120CDE72DE9F041E1
:100A800004460D4616461F463B463246294620463A
:100A9000FFF7B8FF10B10020BDE8F0814FF0FF3044
:100AA000FAE770B504460D461646FFF750FE08B942
:100AB000002070BD002141EA4401C8B2FFF7F1FEF9
:100AC000FFF7C7FE18B9FFF76FFE0020F1E72846D1
:100AD000FFF7E7FEFFF7BDFE3046FFF7E2FEFFF748
:100AE000B8FEFFF761FE0120E3E700207047000039
:100AF000100C014070B5002403F00DFB0446E4B96E
:100B0000782002F06AFF782003F054F9642003F0A3
:100B100032FA04F0C1FD974805F09AFC054604F04E
:100B2000C5FD40F2731005F002FA642004F078FF6E
:100B300005F0A2FC012004F0F5FA70BD2DE9F04F9C
:100B400089B08D488D498E4B8E4ACDE900108E4973
:100B50008E4805F04BFB8948008800F4807000281F
:100B60007DD08849086807F001FA04464FF09D419E
:100B700007F0CAF8864908608249486807F0F6F924
:100B800004464FF09D4107F0BFF8824908607D4957
:100B9000886807F0EBF904464FF09D4107F0B4F880
:100BA0007D4908607749C86807F0E0F904464FF0CE
:100BB0009D4107F0A9F879490860754801684FF030
:100BC000804007F033FA069073480168069807F0F2
:100BD0002DFA82466F4801684FF0404007F026FA30
:100BE00006906E480168069807F020FA8346514641
:100BF00007F01CF8079006F0EDFF064605F064FFCD
:100C000080464FF06632664B06F00AFD044606F059
:100C100089FA64490860604801684FF0804007F035
:100C200005FA03905C480168039807F0FFF98246D3
:100C3000584801684FF0404007F0F8F903905548D4
:100C40000168039807F0F2F98346514607F0ECFA81
:100C500081464FF07E5106F0E9FF044600E086E051
:100C600006F0B8FFCDE90401494801684FF0804023
:100C700007F0DCF9834647480168584607F0D6F983
:100C80008146454801684FF0804007F0CFF9834620
:100C900042480168584607F0C9F98246494606F0BD
:100CA000C5FF044606F096FF0746DDE9042306F07B
:100CB00053F94FF066323A4BCDE9060106F0B0FC2D
:100CC000054606F02FFA3849086034480168006884
:100CD00007F0ACF9039030480168006807F0A6F906
:100CE00002902C480168006807F0A0F98346284864
:100CF0000168006807F09AF95946019006F096FFDE
:100D00008246029907F090FA8146039907F08CFA1F
:100D1000044606F05FFFCDE90401204801681C4845
:100D2000006807F083F982461B480168194800688B
:100D300007F07CF98346514606F078FF81464FF074
:100D4000804107F073F9044606F044FF0746DDE9E9
:100D5000042306F001F94FF06632114BCDE906018C
:100D600006F05EFC054606F0DDF91049086009B0A2
:100D7000BDE8F08F340000206E0000206C000020E1
:100D80005C000020D40000206600002060000020ED
:100D90004000002044000020480000204C000020BB
:100DA00066A64C405000002054000020580000204F
:100DB00008B501211C2000F0E5FF41F6FE10ADF85A
:100DC000000010208DF8030003208DF80200694612
:100DD000FE4800F01BFD2320ADF800006946FC48EA
:100DE00000F014FD4FF44040ADF800006946F948AA
:100DF00000F00CFD4FF40040ADF8000048208DF8E5
:100E000003006946F14800F001FD4FF47040ADF871
:100E1000000048208DF803006946ED4800F0F6FC1C
:100E20002021EB4800F0A1FD0C21E84800F09DFDD9
:100E30004FF44041E74800F098FD49F6F211E348CD
:100E400000F091FD43F20101E14800F08CFD08BD86
:100E500070B50546002405E0285D3038DE4941F8CC
:100E60002400641C102CF7DBDB48C06B01287CD10C
:100E7000D9488068D849496801EB810100EB4100FD
:100E8000D549096801EBC10202EB011100EB8100B9
:100E9000D2490860D0484069CF49096901EB810116
:100EA00000EB4101CC48C06800EBC00202EB00102F
:100EB00001EB8000C9494860C748006AC649C96952
:100EC00001EB810100EB4100C349896901EBC102DB
:100ED00002EB011100EB8100C0498860BE48C06A86
:100EE000BD49896A01EB810100EB4100BA49496AB9
:100EF00001EBC10202EB011100EB8100B749C860B0
:100F0000B548806BB449496B01EB810100EB4101AD
:100F1000B148006B00EBC00202EB001001EB800057
:100F2000AE490861AE4800680968884209DA0221C2
:100F3000A64800F01AFD4FF48071A44800F013FD9C
:100F400008E00221A14800F00EFD4FF480719F4897
:100F500000F009FDA2484068A049496888420BDAC0
:100F600010219A4800F001FD00E056E04FF40061C6
:100F7000964800F0F8FC08E01021944800F0F3FCDB
:100F80004FF40061914800F0EEFC95488068934969
:100F90008968884209DA20218C4800F0E6FC4FF489
:100FA00080518A4800F0DFFC08E02021874800F0EB
:100FB000DAFC4FF48051854800F0D5FC8848C068C1
:100FC0008649C968884208DA4021804800F0CDFC93
:100FD00001217F4800F0C7FC07E040217B4800F07A
:100FE000C2FC01217A4800F0BEFC7D4800697B49C3
:100FF0000969884208DA8021744800F0B6FC0221B1
:10100000734800F0B0FCBAE08021704800F0ABFCFF
:1010100002216F4800F0A7FCB1E06F48806B6E4979
:10102000496B01EB810100EB41006E4908606A48A1
:101030000068002849D1084600680D2844D2DFE83E
:1010400000F043070C11161B20252A2F34393E00CF
:1010500002215E4800F089FC36E002215B4800F086
:1010600082FC31E01021594800F07FFC2CE0102177
:10107000564800F078FC27E02021544800F075FC29
:1010800022E02021514800F06EFC1DE040214F4835
:1010900000F06BFC18E040214C4800F064FC13E0C9
:1010A00080214A4800F061FC0EE08021474800F0B2
:1010B0005AFC09E0F221454800F057FC04E0F22117
:1010C000424800F050FC00BF59E0464800680D2837
:1010D00054D2DFE800F053070D13191F252B3035CC
:1010E0003A3F49004FF48071384800F03EFC45E03B
:1010F0004FF48071354800F036FC3FE04FF400615A
:10110000324800F032FC39E04FF400612F4800F023
:101110002AFC33E04FF480512C4800F026FC2DE0EF
:101120004FF48051294800F01EFC27E00121284897
:1011300000F01BFC22E00121254800F014FC1DE01A
:101140000221234800F011FC18E00221204800F0A1
:101150000AFC13E04FF4C8511C4800F006FC0321C0
:101160001B4800F002FC09E04FF4C851174800F09A
:10117000FAFB0321164800F0F6FB00BF00BF70BD6C
:101180002DE9F0414FF48041114800F0D2FB16499F
:1011900008604FF400410E4800F0CBFB1349086093
:1011A0001148006830BB002011490860022107483F
:1011B00000F0BFFB04461021044800F0BAFB0440D5
:1011C0002021024800F0B5FB044014E00008014073
:1011D000000C014000100140F8000020C000002079
:1011E000E4000020700000200C0000201C00002003
:1011F000B401224221E04021FC4800F09AFB044067
:101200008021FA4800F095FB044024B10021F84801
:1012100002F012F92DE0F748006806F0EAF90546F9
:10122000F54AF64B06F060F8074606F0B5F984B2C9
:101230002146EF4802F000F91BE00120F049086068
:10124000F048006820B10021E94802F0F5F810E00C
:10125000E848006806F0CDF90546E74AE74B06F096
:1012600043F8074606F098F984B22146E04802F0B8
:10127000E3F8BDE8F08110B54FF48051E24800F08A
:1012800058FBE24908604FF40051DF4800F051FB81
:10129000DF4908604FF40041D44800F04AFBDD49C3
:1012A00008600846006890B1D848006818B9F22173
:1012B000CE4800F05AFBD648006840B94FF4C851F8
:1012C000CA4800F052FB0321CF4800F04EFB10BD8E
:1012D00010B52021CC4800F048FB4FF48041CE48A7
:1012E00000F041FB4FF40041CB4800F03CFB0421EF
:1012F000BE4800F038FB0821BC4800F034FB002455
:1013000002E0FFF71BFC641C962CFADBC348006864
:1013100006F0F0FD002808DAC048006806F0EAFD93
:1013200000F5B470BE49086005E0BC48006806F0EE
:10133000E1FDBB4908604FF48041B74800F015FB60
:101340002021B14800F00FFB4FF40041B24800F0FB
:101350000AFB0421A54800F006FB0821A34800F081
:1013600002FB002402E0FFF7E9FB641C962CFADB89
:10137000AA48006806F0BEFD002808DAA748006801
:1013800006F0B8FD00F5B470A549486005E0A34833
:10139000006806F0AFFDA24948604FF400419E4846
:1013A00000F0E3FA2021984800F0DDFA4FF4804184
:1013B000994800F0D8FA04218C4800F0D4FA0821AA
:1013C0008A4800F0D0FA002402E0FFF7B7FB641C63
:1013D000962CFADB9148006806F08CFD002808DAAC
:1013E0008E48006806F086FD00F5B4708C49886070
:1013F00005E08A48006806F07DFD8949886004217F
:101400007A4800F0B2FA20217F4800F0ACFA4FF49D
:101410008041814800F0A7FA4FF400417E4800F077
:10142000A2FA0821714800F09EFA002402E0FFF7BA
:1014300085FB641C962CFADB7848006806F05AFDA0
:10144000002808DA7548006806F054FD00F5B4700D
:101450007349C86005E07148006806F04BFD7049AB
:10146000C8600821614800F080FA2021664800F039
:101470007AFA4FF48041684800F075FA4FF4004161
:10148000654800F070FA0421584800F06CFA002416
:1014900002E0FFF753FB641C962CFADB5F48006800
:1014A00006F028FD002808DA5C48006806F022FDF6
:1014B00000F5B4705A49086105E05848006806F024
:1014C00019FD5749086110BD5649098801F40041CA
:1014D000002970D054490978A1F1300006287FD244
:1014E000DFE800F07E03213C546A31214F4A11703D
:1014F000302151709170D170117151713121917100
:101500003521D171302111723121517237219172FF
:101510003021D172312111733521517330219173F2
:101520003121D1735CE03121404A1170302151707A
:101530009170D170117151719171D171117231210C
:101540005172372191723021D172312111733521BD
:101550005173302191733121D17341E03121334AEC
:101560001170302151709170D17011715171917160
:10157000D171117251729172D17231211173352171
:101580005173302191733121D17329E03121274AE0
:101590001170302151709170D17011715171917130
:1015A000D171117251729172D17211735173917321
:1015B0003121D17314E017E030211C4A11705170B1
:1015C0009170D170117151719171D171117251720B
:1015D0009172D1721173517391733121D17300BF24
:1015E00000BF00210F4A1180704700000008014031
:1015F0000008004000000020986E1283C0CAF33F2C
:10160000B40122421C000020000C01401000002008
:101610001400002018000020001001405400002099
:10162000E400002092000020000200203801002089
:101630000948804709480047FEE7FEE7FEE7FEE766
:10164000FEE7FEE7FEE7FEE7FEE7FEE704480549A2
:10165000054A064B704700007B030008ED000008B8
:101660003803002038090020380500203805002004
:1016700031490143314A1160704770B500210023A0
:101680000F22C47804B32D4C246804F4E064C4F53C
:10169000E064210AC1F10403CA40447804FA03F16A
:1016A0008478144021430901254C0678A15504781B
:1016B00004F01F050124AC4005786D11AD0005F163
:1016C000E025C5F8004109E0047804F01F05012475
:1016D000AC401C4D0678761145F8264070BD1A4A7C
:1016E0000A400243154B1B1F1A60704739B1134A59
:1016F000121D12680243114B1B1D1A6006E00F4AAF
:10170000121D126882430D4B1B1D1A60704704287E
:1017100008D14FF0E021096941F004014FF0E022C7
:10172000116107E04FF0E021096921F004014FF059
:10173000E0221161704700000000FA050CED00E0A6
:1017400000E400E080E100E080FFFF1F10B50446E8
:10175000CC48844208D10121042000F02DFB002157
:10176000042000F029FB46E0C748844208D101214B
:10177000082000F021FB0021082000F01DFB3AE0CA
:10178000C248844208D10121102000F015FB00213D
:10179000102000F011FB2EE0BD48844208D1012149
:1017A000202000F009FB0021202000F005FB22E0B2
:1017B000B848844208D10121402000F0FDFA002100
:1017C000402000F0F9FA16E0B348844208D1012124
:1017D000802000F0F1FA0021802000F0EDFA0AE00C
:1017E000AE48844207D10121801500F0E5FA0021BE
:1017F000A01500F0E1FA10BD10B50121084600F077
:10180000DBFA0021012000F0D7FA10BD2DE9F041EC
:10181000024600250026002000230024002791F81E
:1018200003C00CF00F0591F803C00CF0100CBCF1D4
:10183000000F03D091F802C04CEA050591F800C0F2
:10184000BCF1000F31D0146800202BE04FF0010CE8
:101850000CFA00F3B1F800C00CEA03069E4220D156
:1018600083004FF00F0C0CFA03F7BC4305FA03FC9E
:101870004CEA040491F803C0BCF1280F06D14FF0E4
:10188000010C0CFA00FCC2F814C00AE091F803C085
:10189000BCF1480F05D14FF0010C0CFA00FCC2F866
:1018A00010C0401C0828D1D31460B1F800C0BCF1AE
:1018B000FF0F34DD546800202EE000F1080C4FF0DB
:1018C000010808FA0CF3B1F800C00CEA03069E42C6
:1018D00021D183004FF00F0C0CFA03F7BC4305FA3B
:1018E00003FC4CEA040491F803C0BCF1280F05D1B5
:1018F00000F1080C08FA0CF8C2F8148091F803C043
:10190000BCF1480F07D100F1080C4FF0010808FAAC
:101910000CF8C2F81080401C0828CED35460BDE8F3
:10192000F0814FF6FF710180022181700421C170A6
:1019300070470246002093680B400BB1012000E085
:10194000002070470146886880B270470246002038
:10195000D3680B400BB1012000E000207047014626
:10196000C86880B2704701617047416170470AB131
:10197000016100E041617047C16070474FF48032FF
:101980000A4382618161826182698269704702468D
:101990000020434B18684FF68073184040EA02104D
:1019A00008433F4B186070473E49C8617047F0B527
:1019B0000A46002300240021002500F00046B6F16D
:1019C000004F02D1364EF16901E0354E7168C0F327
:1019D000034583B200F44016B6F5401F08D121F04C
:1019E00070612F4E766826F070662D4F7E6012E093
:1019F00000F48016B6F5801F06D1032606FA05F41A
:101A0000A14341F0706106E0460D360103FA06F687
:101A1000B14341F0706122B1460D360103FA06F67A
:101A2000314300F00046B6F1004F02D11C4EF16187
:101A300001E01B4E7160F0BD30B500228B071C0F1A
:101A40000F2303FA04F2164B08338C1053F824309A
:101A50009343134C08348D1044F8253023468C10E2
:101A600053F824308C07240F00FA04F423430C4C61
:101A700008348D1044F8253030BD0A49DC31086047
:101A80007047000000080140000C014000100140B8
:101A90000014014000180140001C014000200140DA
:101AA0000000014000002042DF48006840F00100D3
:101AB000DD49086008464068DC490840DA4948606A
:101AC00008460068DA490840D749086008460068B7
:101AD00020F4802008600846406820F4FE0048603A
:101AE0004FF41F0088607047CF49096821F48031A6
:101AF000CD4A11601146096821F480211160B0F5CA
:101B0000803F03D0B0F5802F0ED106E0C6490968AA
:101B100041F48031C44A116007E0C349096841F4C7
:101B2000A021C14A116000E000BF00BF704710B59E
:101B300001460022002300204A11012A02D1BA4C9A
:101B4000236806E0022A02D1B74C236A01E0B64CB2
:101B5000636A01F01F02012494401C400CB1012073
:101B600000E0002010BD38B50020009000240025C2
:101B700000BF3120FFF7DBFF05460098401C0090B6
:101B80000098B0F5A06F01D0002DF2D03120FFF702
:101B9000CEFF08B1012400E00024204638BD0146F4
:101BA0000020A14A106820F0F80040EAC10010604F
:101BB0007047A04908607047024600209A4B586859
:101BC00020F47C1042EA01031843974B5860704799
:101BD00098490866704701460020934A506820F0F3
:101BE00003000843506070478F48406800F00C00C5
:101BF0007047014600208C4A506820F0F0000843EE
:101C00005060704701460020874A506820F4E06029
:101C100008435060704701460020834A506820F412
:101C2000605040EAC1005060704729B17E4A527A44
:101C300002437D4B5A7204E07B4A527A82437A4BCC
:101C40005A7270477B49D8310860704701460020BE
:101C5000754A506820F440400843506070470021A6
:101C6000714A20321170704A82F82010012802D087
:101C700004280AD104E001216B4A2032117005E0EA
:101C80000521694A2032117000E000BF00BF704793
:101C90006949086070476449096A0143624A1162F0
:101CA0007047654944390860704730B5002100220B
:101CB000002400235C4D6D6805F00C0121B104295E
:101CC00005D0082923D105E05C4D056022E05B4D7D
:101CD00005601FE0544D6D6805F47012524D6D683B
:101CE00005F48034022505EB92421CB9544D55434E
:101CF00005600BE04C4D6D6805F400351DB1504D8D
:101D00005543056002E04D4D5543056002E04B4DE3
:101D1000056000BF00BF444D6D6805F0F001090982
:101D2000484D6B5C0568DD4045603F4D6D6805F4CE
:101D3000E061090A434D6B5C4568DD4085603A4DC2
:101D40006D6805F46051C90A3E4D6B5C4568DD4025
:101D5000C560354D6D6805F44041890B3A4D6B5CAB
:101D6000C568B5FBF3F5056130BD29B12E4A52694E
:101D700002432D4B5A6104E02B4A526982432A4B9D
:101D80005A61704729B1284A92690243264B9A61E9
:101D900004E0254A92698243234B9A61704729B136
:101DA000214AD2690243204BDA6104E01E4AD2691B
:101DB00082431D4BDA61704729B11B4AD268024346
:101DC000194BDA6004E0184AD2688243164BDA6095
:101DD000704729B1144A12690243134B1A6104E097
:101DE000114A12698243104B1A61704712494039F7
:101DF000086070470F49C86470470B49C871704745
:101E00000948406A40F080700749486270470146BF
:101E10000020054A92680A400AB1012000E0002033
:101E20007047014988727047001002400000FFF8B7
:101E3000FFFFF6FE000042428004424200127A0098
:101E400000093D00740000208400002010B5044605
:101E5000FB48844209D101218803FFF7ADFF00212F
:101E60004FF48040FFF7A8FF32E0F648844209D1E2
:101E700001214804FFF7ADFF00214FF40030FFF7C8
:101E8000A8FF25E0F048844209D101218804FFF72A
:101E9000A0FF00214FF48020FFF79BFF18E0EB48E4
:101EA000844209D10121C804FFF793FF00214FF4B8
:101EB0000020FFF78EFF0BE0E548844208D10121A6
:101EC0000805FFF786FF00214FF48010FFF781FF20
:101ED00010BD2DE9F04786B005460E460024A24607
:101EE00000BFA1460027B08900B100BF2F462C8A51
:101EF0004CF6FF700440F08804432C82AC894EF607
:101F0000F3100440B08831890843718908430443C1
:101F1000AC81AC8A4FF6FF400440B0890443AC82E8
:101F200001A8FFF7C2FEC648874202D1DDF810A023
:101F300001E0DDF80CA0A88900F4004040B10AEBF4
:101F4000CA0000EB0A1031684900B0FBF1F807E065
:101F50000AEBCA0000EB0A1031688900B0FBF1F807
:101F60006420B8FBF0F004012009642101FB108912
:101F7000A88900F4004040B1322000EBC900B0FB5A
:101F8000F1F000F00700044308E0322000EB0910F4
:101F90006421B0FBF1F000F00F0004432C8106B087
:101FA000BDE8F0874FF41651016000218180C180A7
:101FB00001810C21418100218181704710B50246C9
:101FC0000020108A4FF2FF0318400B884C882343EF
:101FD0008C882343CC8823431843108210BD0021F2
:101FE000018041808180C180704721B1828942F4A3
:101FF0000052828104E082894DF6FF731A4082818B
:102000007047F0B50346002400260025002040F666
:102010006A17B94200D100BF1846C1F3421401F05B
:102020001F06012707FA06F5012C01D10C3004E048
:10203000022C01D1103000E014301AB107682F4390
:10204000076002E00768AF430760F0BD1AB1838AFA
:102050000B43838202E0838A8B4383827047028A28
:102060004FF6F0731A400282028A0A4302827047D6
:1020700082894FF2FF731A40828182890A438281EA
:10208000704721B1828942F00202828104E0828994
:102090004FF6FD731A4082817047028A4FF6DF7354
:1020A0001A400282028A0A430282704721B1028AE0
:1020B00042F48042028204E0028A4BF6FF731A4027
:1020C00002827047C1F30802828070470146888807
:1020D000C0F308007047818941F001018181704798
:1020E000028BD2B20283028B42EA01220283704742
:1020F000028B02F47F420283028B0A430283704701
:1021000021B1828A42F02002828204E0828A4FF664
:10211000DF731A408282704721B1828A42F0100236
:10212000828204E0828A4FF6EF731A4082827047FF
:1021300021B1828A42F00802828204E0828A4FF64C
:10214000F7731A408282704721B1828942F40042BB
:10215000828103E08289C2F30E028281704721B13D
:10216000828A42F40062828204E0828A4FF2FF7324
:102170001A4082827047828A4FF6FB731A4082822D
:10218000828A0A438282704721B1828A42F0020227
:10219000828204E0828A4FF6FD731A408282704781
:1021A00002460020B1F5007F00D100BF13880B402C
:1021B0000BB1012000E00020704701F40072B2F57D
:1021C000007F00D100BFCA430280704770B502464D
:1021D000002400230025002040F66A16B14200D1F9
:1021E00000BFC1F3421501F01F03012606FA03F3F5
:1021F000012D02D19689334006E0022D02D1168AC4
:10220000334001E0968A33400C12012606FA04F4AA
:102210001688344013B10CB1012000E0002070BDDD
:1022200010B50022002340F66A14A14200D100BF7D
:102230000A1201249440A3B2DC43048010BD0000C4
:10224000003801400044004000480040004C00407D
:102250000050004010B50446FA48844208D10121DC
:102260004015FFF7A9FD00216015FFF7A5FD17E058
:10227000F548844208D101210015FFF79DFD00219A
:102280002015FFF799FD0BE0F048844208D10121A9
:10229000C803FFF791FD00214FF40040FFF78CFDCC
:1022A00010BD30B50246002000235068E84C2040A5
:1022B0000D790C6844EA0524204350609068E54C91
:1022C0002040D1E902542C434D7944EA450420438F
:1022D0009060D06A20F470000C7C641EE4B223434A
:1022E00040EA0350D06230BD0021016001714171AC
:1022F0008160C16001210174704721B1826842F0A0
:102300000102826003E0826822F00102826070476D
:1023100021B1826842F48072826003E0826822F414
:1023200080728260704710B50023CBB21AB1446846
:102330001C43446002E044689C43446010BD8168D3
:1023400041F0080181607047014600208A6802F070
:1023500008020AB1012000E000207047816841F0C6
:10236000040181607047014600208A6802F004027F
:102370000AB1012000E00020704721B1826842F4D8
:10238000A002826003E0826822F4A00282607047AB
:10239000014600208A6802F480020AB1012000E0B0
:1023A0000020704710B50A4600210023416821F43F
:1023B0006041531E41EA4331416010BD21B1426882
:1023C00042F40062426003E0426822F4006242602C
:1023D0007047F0B504460D4600200021092D11DD9F
:1023E000E068A5F10A0606EB4607072606FA07F19C
:1023F0008843A5F10A0606EB460603FA06F10843F0
:10240000E0600CE0206905EB4507072606FA07F1B6
:10241000884305EB450603FA06F108432061072AC5
:102420000FDA606B561E06EB86071F2606FA07F1C9
:102430008843561E06EB860605FA06F108436063DC
:1024400022E00D2A0FDA206BD61F06EB86071F2627
:1024500006FA07F18843D61F06EB860605FA06F151
:102460000843206310E0E06AA2F10D0606EB860740
:102470001F2606FA07F18843A2F10D0606EB860631
:1024800005FA06F10843E062F0BD21B1826842F42A
:102490008012826003E0826822F4801282607047BA
:1024A0000146C86C80B2704766484C30006870477F
:1024B00021B1426842F48062426003E0426822F443
:1024C00080624260704721B1426842F480524260AB
:1024D00003E0426822F48052426070470A460021BD
:1024E000816821F4E04111438160704721B1826825
:1024F00042F40042826003E0826822F4004282607B
:10250000704721B1826842F40212826003E082685F
:1025100022F4021282607047014600208A6802F4A9
:1025200000120AB1012000E000207047F0B5044617
:102530001546002000220026092911DDE068A1F1DE
:102540000A0707EB470C072707FA0CF29043A1F1A3
:102550000A0707EB470703FA07F21043E0600CE0B5
:10256000206901EB410C072707FA0CF2904301EBBD
:10257000410703FA07F210432061A06BC0F3015634
:10258000EF1C06F1010CA7EB0C0707EB870C1F27CC
:1025900007FA0CF29043EF1C06F1010CA7EB0C07B5
:1025A00007EB870701FA07F21043A063F0BD10B5EF
:1025B0000A4600210023816B21F44011531E41EA99
:1025C0000351816310BD08B5002300930090009B68
:1025D0000B440093009B1A6008BD08B5024600201A
:1025E0000090009201F12800009B18440090009890
:1025F000006880B208BD0A4600214168164B1940A8
:102600001143416070474162826270470A4600216F
:10261000416821F01F0111434160704740B10949F1
:102620000831096841F40001064A0832116007E0E8
:1026300004490831096821F40001024A0832116096
:10264000704700000024014000280140003C014088
:10265000FFFEF0FFFDF7F1FFFFFD3FFF0246002008
:1026600013680B400BB1012000E000207047CA4303
:102670000260704770B502460020002300240B1250
:102680005568CEB205EA060415681D4015B10CB1B7
:10269000012000E0002070BD00220A12D343036035
:1026A0007047000010B50446FE48844208D101215D
:1026B000C014FFF781FB0021E014FFF77DFBC4E0AD
:1026C000B4F1804F08D101210846FFF782FB0021B9
:1026D0000120FFF77EFBB8E0F348844208D10121D6
:1026E0000220FFF776FB00210220FFF772FBACE02F
:1026F000EE48844208D101210420FFF76AFB002143
:102700000420FFF766FBA0E0E948844208D10121DC
:102710000820FFF75EFB00210820FFF75AFB94E03A
:10272000E448844208D101211020FFF752FB002128
:102730001020FFF74EFB88E0DF48844208D10121DA
:102740002020FFF746FB00212020FFF742FB7CE022
:10275000DA48844208D101214014FFF72DFB002103
:102760006014FFF729FB70E0D548844209D10121AC
:10277000C804FFF721FB00214FF40020FFF71CFBEA
:1027800063E0D048844209D101210805FFF714FB1A
:1027900000214FF48010FFF70FFB56E0CA48844237
:1027A00009D101214805FFF707FB00214FF4001074
:1027B000FFF702FB49E0C548844208D101214020CF
:1027C000FFF707FB00214020FFF703FB3DE0C04877
:1027D000844208D101218020FFF7FBFA00218020EC
:1027E000FFF7F7FA31E0BB48844208D10121801598
:1027F000FFF7EFFA0021A015FFF7EBFA25E0B64846
:10280000844209D101210804FFF7D6FA00214FF4D0
:102810008030FFF7D1FA18E0B048844209D1012195
:102820004804FFF7C9FA00214FF40030FFF7C4FA5B
:102830000BE0AB48844208D101218804FFF7BCFAC1
:1028400000214FF48020FFF7B7FA10BD0022028864
:10285000944B98420ED0994B98420BD0B0F1804FD8
:1028600008D0914B984205D0904B984202D0904BA3
:10287000984204D14FF68F731A404B881A438D4B00
:10288000984207D08C4B984204D04FF6FF431A4031
:10289000CB881A4302808B8883850B880385814B04
:1028A00098420BD0854B984208D08B4B984205D06C
:1028B0008A4B984202D08A4B984201D10B7A038608
:1028C00001238382704770B5002400220023058C09
:1028D0004FF6FE7635400584028C8388048B4FF6D4
:1028E0008F752C40B51E2C400D882C43751E2A4038
:1028F0000D892A434D882A436A4DA8420BD06F4D5B
:10290000A84208D0744DA84205D0744DA84202D008
:10291000734DA84213D14FF6F7752A404D892A43CB
:102920004FF6FB752A408D882A434FF6FF652B40F2
:102930004FF6FF552B408D892B43CD892B43838048
:102940000483CD888586028470BD70B50024002282
:102950000023058C4FF6EF7635400584028C838882
:10296000048B48F6FF752C404FF6FF452C400D8830
:102970004FF6FF7606EA05252C434FF6DF752A4011
:102980000D8906EA05152A434D8806EA05152A43EE
:10299000444DA84202D0494DA8421DD14FF67F7543
:1029A0002A404D894FF6FF7606EA05152A434FF671
:1029B000BF752A408D8806EA05152A434FF6FF3574
:1029C0002B404FF2FF752B408D8906EA85052B437E
:1029D000CD8906EA85052B4383800483CD8805874E
:1029E000028470BD70B5002400220023058C4FF6D0
:1029F000FF6635400584028C8388848B4FF68F7583
:102A00002C404FF6FC752C400D882C434FF6FF559B
:102A10002A400D894FF6FF7606EA05252A434D88A0
:102A200006EA05252A431F4DA84202D0234DA8429D
:102A30001DD14FF2FF752A404D894FF6FF7606EA09
:102A400005252A434FF6FF352A408D8806EA0525DD
:102A50002A434EF6FF752B404DF6FF752B408D89AE
:102A600006EA05152B43CD8906EA05152B4383801D
:102A70008483CD888587028470BD70B500220023D1
:102A80000024058C4EF6FF7635400584038C84883F
:102A9000828B48F6FF752A404FF6FF452A400D8885
:102AA00020E00000002C014000040040000800402D
:102AB000000C0040001000400014004000340140B1
:102AC000004C0140005001400054014000180040FB
:102AD000001C004000200040004001400044014034
:102AE000004801404FF6FF7606EA05252A434DF6D9
:102AF000FF752B400D8906EA05352B434D8806EA04
:102B000005352B43FA4DA84202D0FA4DA84208D110
:102B10004BF6FF752C408D894FF6FF7606EA85153A
:102B20002C4384808283CD88A0F84050038470BDFC
:102B3000828B4FF2FF331A408283828B4FF6FF73F2
:102B400003EA01231A4382837047F0B50C46154609
:102B5000002200210026078C4EF6FF7C07EA0C07B6
:102B60000784828B018C4FF6FF7707EA043640F624
:102B7000FF473A404FF6FF7707EA05273A434FF6FB
:102B8000FF7707EA03373A43D94FB8420ED0D94FFF
:102B9000B8420BD0B0F1804F08D0D74FB84205D023
:102BA000D64FB84202D0D64FB84206D14DF6FF7785
:102BB000394046F48057394305E047F6FF5739401E
:102BC00044F48057394382830184F0BD828B4FF6F1
:102BD000F3731A408283828B0A4382837047F0B575
:102BE0000C461546002200210026078C4FF6FF6C8C
:102BF00007EA0C070784828B018C4FF6FF7707EA00
:102C000004264FF60C773A404FF6FF7707EA031792
:102C10002F433A43B64FB8420ED0B64FB8420BD00E
:102C2000B0F1804F08D0B44FB84205D0B34FB8428E
:102C300002D0B34FB84206D14FF6FF57394046F4A1
:102C40008077394305E04FF2FF57394044F48077ED
:102C5000394382830184F0BD028B4FF2FF331A4067
:102C60000283028B4FF6FF7303EA01231A430283A8
:102C70007047F0B50C461546002200210026078C4F
:102C80004FF6EF7C07EA0C070784028B018C4FF6A6
:102C9000FF7707EA041640F6FF473A404FF6FF7702
:102CA00007EA03373A434FF6FF7707EA05273A4327
:102CB0008F4FB8420ED08F4FB8420BD0B0F1804F3B
:102CC00008D08D4FB84205D08C4FB84202D08C4FFF
:102CD000B84206D14FF6DF77394046F01007394346
:102CE00005E04FF65F77394044F01007394302831F
:102CF0000184F0BD028B4FF6F3731A400283028BFE
:102D00000A4302837047F0B50C46154600220021A5
:102D1000068C4FF6FE773E400684028B018C4FF600
:102D20000C7632407E1C06EA03162E433243704E68
:102D3000B0420ED06F4EB0420BD0B0F1804F08D0F1
:102D40006D4EB04205D06D4EB04202D06C4EB042D6
:102D500006D14FF6FD76314044F00106314305E0DF
:102D60004FF6F576314044F0010631430283018489
:102D7000F0BD70B505460C465D4885420ED05D48F5
:102D800085420BD0B5F1804F08D05B48854205D015
:102D90005A48854202D05A48854200D100E000BF1F
:102DA000208850B92389A28861882846FFF7ABFFA5
:102DB000E1882846FFF79EFF25E0208804280AD1F5
:102DC0002389A28861882846FFF753FFE1882846B7
:102DD000FFF742FF17E0208808280AD12389A2883C
:102DE00061882846FFF7FBFEE1882846FFF7EEFEE4
:102DF00009E02389A28861882846FFF7A6FEE188BA
:102E00002846FFF795FE70BD2DE9F04105460C46BA
:102E100000260127608808B9022600E00026A08865
:102E2000012801D1022700E001272088A0B92389C9
:102E3000A28861882846FFF766FFE1882846FFF7E9
:102E400059FF23893A4631462846FFF712FFE188A9
:102E50002846FFF701FF13E02389A28861882846EE
:102E6000FFF707FFE1882846FFF7F6FE23893A4679
:102E700031462846FFF747FFE1882846FFF73AFF2B
:102E8000BDE8F0810A884B881A438B881A43CB88A7
:102E90001A430B891A434B891A438B891A43A0F8AA
:102EA000442070474FF6FF71818000210180C1806E
:102EB0004180017270470021018041808180C18082
:102EC000018141818181C181704700210180418060
:102ED000012181800021C180018170470021018092
:102EE00041808180C18001814181818170470000E2
:102EF000002C014000340140000400400008004064
:102F0000000C004021B1028842F00102028004E07E
:102F100002884FF6FE731A400280704731B1B0F854
:102F2000442042F40042A0F8442005E0B0F84420D8
:102F3000C2F30E02A0F8442070471AB183890B43F4
:102F4000838102E083898B4383817047818270474C
:102F500041EA0203A0F8483070471AB183890B4355
:102F6000838102E083898B438381704701894FF617
:102F7000F8721140018170470A46002101894FF61D
:102F80008F73194011430181704730B504460D46D7
:102F900029462046FFF7F0FF208940F007002081F6
:102FA00030BD2DE9F04104460D4616461F46602D02
:102FB00006D13B46012231462046FFF75AFE05E086
:102FC0003B46012231462046FFF79DFE294620461A
:102FD000FFF7D2FF208940F007002081BDE8F08193
:102FE00030B50C4600210189C9B24FF6FF7505EADC
:102FF0000325154325432943018130BD2DE9F041C7
:1030000005460E4617469846002443463A46314642
:103010002846FFF7E5FF2C894FF6F870044044F08E
:1030200007044FF68F70044044F070042C81BDE813
:10303000F081F0B504460D4616461F463B46324623
:1030400029462046FFF7CCFF208940F480402081AC
:10305000F0BD0185828270470A46002101884FF643
:103060008F731940114301807047F0B50C46154627
:103070001E460021002200230189028B038C4FF69B
:10308000F877394021434FF6FC473A4040F20117A8
:103090003A434FF6DD773B404FF6FF7707EA0617D6
:1030A0002F433B43018102830384F0BD0A46002184
:1030B000018B4FF68F7319401143018370470A4605
:1030C0000021018B48F6FF7319404FF6FF7303EAA6
:1030D00002231943018370470A460021818B4FF672
:1030E0008F7319401143818370470A460021818BF9
:1030F00048F6FF7319404FF6FF7303EA02231943A2
:103100008183704721B1028842F08002028004E08E
:1031100002884FF67F731A400280704721B182887F
:1031200042F00402828004E082884FF6FB731A406A
:103130008280704721B1828842F00802828004E0D8
:1031400082884FF6F7731A408280704721B18288D7
:1031500042F00102828004E082884FF6FE731A403A
:10316000828070470A460021018B4FF6F7731940A1
:103170001143018370470A460021018B4FF2FF7310
:1031800019404FF6FF7303EA022319430183704786
:103190000A460021818B4FF6F77319401143818352
:1031A00070470A460021818B4FF2FF7319404FF69A
:1031B000FF7303EA02231943818370470A46002103
:1031C000018B4FF6FB7319401143018370470A4688
:1031D0000021018B4FF6FF3319404FF6FF7303EACE
:1031E00002231943018370470A460021818B4FF661
:1031F000FB7319401143818370470A460021818B7C
:103200004FF6FF3319404FF6FF7303EA02231943C9
:10321000818370470A460021018B4FF67F73194066
:103220001143018370470A460021018BC1F30E014F
:103230004FF6FF7303EA02231943018370470A46DE
:103240000021818B4FF67F731940114381837047B2
:103250000A460021818BC1F30E014FF6FF7303EA8A
:1032600002231943818370470A460021018C4FF6DF
:10327000FD7319401143018470470A460021018CF7
:103280004FF6F77319401143018470470A46002135
:10329000018C4FF6DF7319404FF6FF7303EA0213F8
:1032A0001943018470470A460021018C4FF67F7351
:1032B00019404FF6FF7303EA021319430184704764
:1032C0000A460021018C4FF6FF5319404FF6FF7359
:1032D00003EA02231943018470470A460021018C46
:1032E0004FF2FF7319404FF6FF7303EA02231943AD
:1032F000018470470A460021018C4DF6FF73194086
:103300004FF6FF7303EA023319430184704730B567
:10331000002301248C40A3B2048C9C430484048CBD
:1033200002FA01F5ADB22C43048430BD30B5002360
:1033300004248C40A3B2048C9C430484048C02FAC1
:1033400001F5ADB22C43048430BD70B503460020B6
:1033500000241846183001258D40ACB21D8CA543C1
:103360001D8409B1082909D100EB6100056825F029
:10337000700505600568154305600EE00D1FC5F377
:103380004E052844056825F4E045056005684FF6BC
:10339000FF7606EA02263543056070BD21B102883A
:1033A00042F00202028004E002884FF6FD731A40E8
:1033B0000280704721B1028842F00402028004E0DA
:1033C00002884FF6FB731A400280704721B1828851
:1033D00042F08002828004E082884FF67F731A40B8
:1033E0008280704702884FF6F7731A400280028885
:1033F0000A430280704782884FF68F731A4082809A
:1034000082880A438280704702894FF6F8731A4017
:10341000028102890A430281704702894FF67F7355
:103420001A40028102890A430281704781847047F1
:103430008185704781867047018770478187704713
:10344000A0F84010704702884FF6FF431A400280F0
:1034500002880A43028070470146888E7047014601
:10346000088F70470146888F70470146B1F84000C9
:1034700070470146888C70470146088D70470246A8
:103480000020138A0B400BB1012000E000207047A0
:10349000CA430282704730B5024600200023002450
:1034A000158A05EA0103958905EA010413B10CB1F7
:1034B000012000E0002030BDCA43028270470000B6
:1034C00010B56FF00400FEF722F93648006836495F
:1034D000B0FBF1F0354908700846007800EB400178
:1034E000C1EBC0104FF6FF7101EAC00030490880FF
:1034F00010BD01462D4A12784A434FF0E0235A612D
:1035000000229A611A46126942F001021A6100BF54
:103510004FF0E022106900F001021AB100F480328D
:10352000002AF5D04FF0E022126922F001024FF09C
:10353000E0231A6100229A61704701461C4A1288F2
:103540004A434FF0E0235A6100229A611A461269F9
:1035500042F001021A6100BF4FF0E022106900F052
:1035600001021AB100F48032002AF5D04FF0E022B7
:10357000126922F001024FF0E0231A6100229A61E1
:1035800070477047002107E042F6E06100BF0A0083
:10359000A1F1010399B2FAD10200A0F1010398B29E
:1035A000F2D170472000002000127A00880000202D
:1035B0008A00002010B54FF4A060FEF759F810BD46
:1035C000014600BF704700BF9D4A128802F04002CA
:1035D000002AF9D0C2B29A4B1B1D1A80704710B551
:1035E00086B00446012144F20400FEF7CBFB4FF401
:1035F0000070ADF8140003208DF8160018208DF827
:10360000170005A98F48FEF701F94FF48060ADF867
:10361000140004208DF8170005A98A48FEF7F6F873
:1036200025208DF8000003208DF801008DF80200A0
:1036300001208DF803006846FEF71FF80194002072
:10364000ADF80800ADF80A00ADF80C00ADF81000B8
:103650000C20ADF80E0001A97948FEF73AFC0122D2
:1036600040F225517648FEF7CCFC01217448FEF764
:10367000BCFC06B010BD10B586B00446012188041C
:10368000FEF78DFB01210820FEF77CFB4FF48060E4
:10369000ADF8140003208DF8160018208DF81700DF
:1036A00005A96948FEF7B2F84FF40060ADF81400C0
:1036B00004208DF8170005A96348FEF7A7F8272016
:1036C0008DF8000003208DF8010002208DF8020023
:1036D00001208DF803006846FDF7CFFF019400201C
:1036E000ADF80800ADF80A00ADF80C00ADF8100018
:1036F0000C20ADF80E0001A95448FEF7EAFB0122A8
:1037000040F225515148FEF77CFC01214F48FEF75D
:103710006CFC06B010BD10B5044621464848FEF7C3
:10372000D1FC00BF40214648FEF73AFD0128F9D1FF
:1037300010BD70B505462C4603E02078FFF7EBFF7F
:10374000641C20780028F8D170BD10B540F22551D6
:103750003B48FEF73BFD10B33948FEF7B7FCC4B257
:103760003B48008800F40040C8B93948008800F49C
:10377000804060B10A2C03D000203549088020E049
:103780003348008840F400403149088019E00D2C8E
:1037900006D12F48008840F480402D49088010E071
:1037A0002B480088C0F30D002A490C542848008893
:1037B000401C2749088008460088C72801DD0020F2
:1037C000088010BD10B540F225512048FEF7FEFCE0
:1037D00010B31E48FEF77AFCC4B21F48008800F4FC
:1037E0000040C8B91C48008800F4804060B10A2C31
:1037F00003D000201849088020E01748008840F4D2
:1038000000401549088019E00D2C06D112480088A7
:1038100040F480401049088010E00F480088C0F351
:103820000D000E490C540C480088401C0A490880C1
:1038300008460088C72801DD0020088010BD000070
:103840000038014000080140000C014000480040E1
:10385000900000203801002092000020000200208B
:1038600038B50446FB4890F82400C0B114B10220DA
:10387000009001E000200090F64A1268D17BF54AE2
:10388000526810786B460122FDF7A9F810B14FF08D
:10389000FF3038BD9DF80010EE48417423E0ED483C
:1038A000807A10B94FF0FF30F3E724B1E948407C4B
:1038B00008B10020EDE714B10120009001E00020E4
:1038C0000090E44A1268D17BE24A526810786B4655
:1038D0000122FDF784F810B14FF0FF30D9E79DF8D1
:1038E0000010DC4841740020D3E738B5002419E00B
:1038F000D8480068C07AA04204D0D6480068407D0D
:10390000A04200D10CE0D349496808786B460122F7
:103910002146FDF7B3F810B14FF0FF3038BD00BFBE
:10392000601CC4B2CB4840680079A042E0DC0020B3
:10393000F4E770B504460D46C6480068C07AA04258
:1039400004D0C4480068407DA04202D14FF0FF304F
:1039500070BDC04840680079A04202DC4FF0FF30E3
:10396000F6E7BC49496808782B4601222146FDF755
:1039700085F8EDE738B50446B64890F82300A04234
:1039800001D1002038BD14B13020009001E00020AA
:103990000090B048807C20B19DF8000040F002000B
:1039A0000090AC4890F8220020B19DF8000040F053
:1039B00080000090A74A1268117DA64A52681078CC
:1039C0006B460122FDF70BF810B14FF0FF30D9E73D
:1039D000A04880F823400020D4E738B5044604F01E
:1039E000700010B10120009005E014B1002000909B
:1039F00001E040200090974A1268917C954A5268F5
:103A000010786B460122FCF7EAFF20B100219148B3
:103A10008172481E38BD9DF8000020F040018D489D
:103A200001730020009004F0400020B99DF80000D0
:103A300040F00400009004F0200020B99DF8000040
:103A400040F00200009004F0100020B99DF8000042
:103A500040F00100009004F0080020B99DF800003B
:103A600040F0380000907B4A1268D17C794A526855
:103A700010786B460122FCF7B2FF20B10021754897
:103A80008172481EC6E724B1082C02D00020FFF73F
:103A900071FF70488472002101753220FFF74DFDDF
:103AA0000020B7E738B504466A48807CA04201D1BF
:103AB000002038BD002C46D0664A12681179654A4C
:103AC000526810786B460122FCF7D8FF10B14FF016
:103AD000FF30EEE79DF8000020F0200000905D4AE6
:103AE000126811795B4A526810786B460122FCF724
:103AF00076FF10B14FF0FF30DBE70320FFF71DFD2D
:103B000002200090534890F8220020B19DF8000058
:103B100040F0800000904F4890F8230020B19DF8BD
:103B2000000040F0300000904A4A1268117D494A76
:103B3000526810786B460122FCF751FF002851D0E3
:103B40004FF0FF30B5E7434A12681179414A526895
:103B500010786B460122FCF791FF10B14FF0FF3057
:103B6000A7E73C48807A00F0010028B19DF80000EA
:103B700040F02000009004E09DF8000020F02000BC
:103B80000090344A12681179324A526810786B46B4
:103B90000122FCF724FF10B14FF0FF3089E703202A
:103BA000FFF7CBFC2B4890F8220010B1802000904A
:103BB00001E000200090274890F8230020B19DF8F4
:103BC000000040F030000090224A1268117D214A26
:103BD000526810786B460122FCF701FF10B14FF0DC
:103BE000FF3066E71B488474002062E708B5194877
:103BF000807A10B94FF0FF3008BD00200090154AC0
:103C00001268D17B134A526810786B460122FCF788
:103C1000E6FE10B14FF0FF30EEE70E4A1268517920
:103C20000C4A526810786B460122FCF7D8FE10B19E
:103C30004FF0FF30E0E7074A12681179054A5268F1
:103C400010786B460122FCF7CAFE28B14FF0FF3016
:103C5000D2E7000094000020F74890F824000028E4
:103C600053D00C200090F44A12681179F24A52683D
:103C700010786B460122FCF7B2FE10B14FF0FF3016
:103C8000BAE73220FFF759FCC0200090EA48807A5A
:103C900000F0010020B19DF8000040F020000090ED
:103CA000E54A12681179E44A526810786B4601229D
:103CB000FCF795FE10B14FF0FF309DE7DE48407CE9
:103CC00010B10220009001E000200090DA4A126852
:103CD000D17BD94A526810786B460122FCF77FFEEF
:103CE00010B14FF0FF3087E700200090D24A1268F1
:103CF0005179D14A526810786B460122FCF76FFE69
:103D0000002855D04FF0FF3076E704200090CA4AD3
:103D100012681179C84A526810786B460122FCF784
:103D20005EFE10B14FF0FF3066E7C348807C20B9DB
:103D3000C148807A00F0010010B94020009001E0F5
:103D400060200090BC4A12681179BB4A5268107812
:103D50006B460122FCF743FE10B14FF0FF304BE7FA
:103D60003220FFF7EAFBB448407C10B101200090FC
:103D700001E000200090B04A1268D17BAE4A526840
:103D800010786B460122FCF72AFE10B14FF0FF308D
:103D900032E7A94A12685179A74A52681078A64BAF
:103DA00010330122FCF71BFE10B14FF0FF3023E768
:103DB000002021E770B50446002624F001049E4847
:103DC00090F8240008B1002070BD9B48807A10B99B
:103DD0004FF0FF30F8E79848057C807A20409649FC
:103DE00008740846007CA04202D04FF0FF3600E085
:103DF000002614B99048007D18B10120FFF730FD6E
:103E000002E00020FFF72CFD3CB1FFF7EFFE20B1F0
:103E1000894805744FF0FF30D6E73046D4E738B50F
:103E200004468548807A10B94FF0FF3038BDBC2C6D
:103E300002DB0120009015E0622C02DB02200090E2
:103E400010E02A2C02DB032000900BE0142C02DB94
:103E50000420009006E00A2C02DB0520009001E01F
:103E6000062000907448C07A9DF80010884201D165
:103E70000020DBE7704A126891786F4A5268107828
:103E80006B460122FCF7ABFD10B14FF0FF30CDE7E0
:103E90009DF800106848C1720020C7E738B5044695
:103EA000282C02DD4FF0FF3038BDDCB90020FFF7D1
:103EB00061FD00208DF8000007208DF801005E4AAA
:103EC0001268917C5C4A526810786B460222FCF7BB
:103ED00086FD10B14FF0FF30E6E70021564801752E
:103EE0000020E1E70120FFF745FD20208DF80000CC
:103EF000012C06D100208DF801000520FFF78FFF6F
:103F000017E0052C06DC01208DF801000520FFF7E5
:103F100086FF0EE0142C06DC02208DF801000A203A
:103F2000FFF77DFF05E003208DF801001420FFF767
:103F300076FF9DF80100072101EB8010C0B28DF8DB
:103F400001003D4A1268917C3B4A526810786B46EA
:103F50000222FCF744FD10B14FF0FF30A4E7082126
:103F60003548817200210173012101750020FFF79E
:103F700021FF002098E738B504462F48807A10B911
:103F80004FF0FF3038BD2C4890F8240010B14FF0AE
:103F9000FF30F7E72848007D50B134B1282C04DC0D
:103FA000E0B2FFF77BFF0020ECE70020FFF776FF91
:103FB000042C01DA042404E0B4F57A7F01DD4FF427
:103FC0007A744FF47A7090FBF4F0401EC0B2009007
:103FD000194A12685178184A526810786B460122C3
:103FE000FCF7FDFC10B14FF0FF30CBE79DF800006F
:103FF000401C4FF47A7191FBF0F081B20E48C18100
:104000000146C9894810FFF70AFF0020BAE738B512
:1040100004460948807A10B94FF0FF3038BD022CB1
:1040200006D0042C0AD0082C0BD0102C0FD10BE09A
:10403000002000900EE00000940000200820009076
:1040400008E01020009005E01820009002E04FF0FA
:10405000FF30E3E700BFF748407A9DF80010B0EB6F
:10406000E10F01D10020D9E7F24A1268D179F14A73
:10407000526810786B460122FCF7B1FC10B14FF08A
:10408000FF30CBE79DF80000C110EA4841720020E4
:10409000C4E738B50446E748807A10B94FF0FF30DE
:1040A00038BDFA2C09D0B4F5FA7F09D0B4F57A7F7F
:1040B00009D0B4F5FA6F0CD108E0002000900BE0B5
:1040C0000820009008E01020009005E018200090E3
:1040D00002E04FF0FF30E3E700BFD648007A9DF8DA
:1040E0000010B0EBE10F01D10020D9E7D14A1268EE
:1040F0009179D04A526810786B460122FCF76FFC28
:1041000010B14FF0FF30CBE79DF80000C010C94957
:1041100008720020C4E71CB580208DF80000C54A55
:104120001268917CC34A526810786B460122FCF7F2
:1041300056FC10B14FF0FF301CBD6420FFF7FDF9B5
:1041400000208DF80000BB4A1268917CB94A526881
:1041500010786B460122FCF742FC10B14FF0FF30A3
:10416000EAE7B44A1268917DB24A526810786B4609
:104170000622FCF783FC10B14FF0FF30DCE79DF81E
:104180000500C007400F9DF8031001F0010140EA4F
:1041900041009DF8011001F0010140EA010474B1F1
:1041A000012C03D10121A348C17427E0022C03D1C3
:1041B0000021A048C17421E04FF0FF30BCE79D4AC8
:1041C0001268D1789B4A526810786B460122FCF73E
:1041D00055FC10B14FF0FF30AEE79DF8000000F045
:1041E0000F0414B94FF0FF30A6E7042C03D10121CE
:1041F0009048C17402E000218E48C174FF218D48AF
:104200008172FF208B490872FF218A484172C17276
:104210004FF6FF71C181FF21017481740121017387
:1042200080F82210002180F82310417501751630A6
:10423000016041608160163880F8241080F82510F4
:10424000C1844FF4FA60FFF724FF10B14FF0FF3044
:1042500072E70220FFF7DBFE10B14FF0FF306BE793
:104260002A20FFF7DCFD10B14FF0FF3064E7322069
:10427000FFF781FE10B14FF0FF305DE70020FFF740
:1042800099FD10B14FF0FF3056E70020FFF70AFC10
:1042900010B14FF0FF304FE70020FFF79EFB0020EA
:1042A0004AE77CB504460D466248807A00F070000B
:1042B00010B94FF0FF307CBD5E4A1268117B5D4A39
:1042C000526810786B460622FCF7D8FB10B14FF00D
:1042D000FF30F0E79DF801009DF8001040EA012052
:1042E00000B220809DF803009DF8021040EA0120F2
:1042F00000B260809DF805009DF8041040EA01209E
:1043000000B2A08015B12846FFF73BF90020D2E7A4
:104310007CB504460D464748807A00F0080010B985
:104320004FF0FF307CBD434A1268517B414A5268CE
:1043300010786B460622FCF7A1FB10B14FF0FF305E
:10434000F0E79DF801009DF8001040EA012000B25E
:1043500020809DF803009DF8021040EA012000B281
:1043600060809DF805009DF8041040EA012000B22D
:10437000A08015B12846FFF704F90020D2E72DE907
:10438000FE4F05460C462B48807A18B94FF0FF3097
:10439000BDE8FE8F274A1268917B264A5268107842
:1043A00002AB0222FCF76AFB10B14FF0FF30EFE7DF
:1043B0009DF809009DF8081040EA012006B214B1EA
:1043C0002046FFF7DEF81B494968C88803F0E6FD80
:1043D000184901904968B1F9080003F0C7FD834608
:1043E000304603F0C3FD5946009003F01DFF82469E
:1043F000019903F089FC81460F4903F017FC8046C0
:104400004FF08F4103F012FE074603F073FD286062
:104410000020BDE710B588B004461CB94FF0FF304E
:1044200008B010BD206848B9606838B9A06828B9DC
:104430000020F5E79400002000000C42FA4949688A
:10444000087806AB03221146FCF718FB10B14FF0B9
:10445000FF30E5E79DF81800082101EB201000F07F
:104460000F00ADF800009DF8190001EB201000F0DE
:104470000F00ADF802009DF81A0001EB201000F0CB
:104480000F00ADF8040020684100BDF90000403085
:1044900091FBF0F000B2ADF8100060684100BDF98A
:1044A0000200403091FBF0F000B2ADF81200A068BD
:1044B0004100BDF90400403091FBF0F000B2ADF8CE
:1044C0001400D9494968087806AB06221146FCF762
:1044D000D5FA10B14FF0FF30A2E79DF819009DF812
:1044E000181040EA012000B2ADF808009DF81B004A
:1044F0009DF81A1040EA012000B2ADF80A009DF8BC
:104500001D009DF81C1040EA012000B2ADF80C001F
:10451000BDF81000BDF80810084400B2ADF8100056
:10452000BDF81200BDF80A10084400B2ADF8120040
:10453000BDF81400BDF80C10084400B2ADF814002A
:10454000BDF81000000A8DF81800BDF81000C0B2C8
:104550008DF81900BDF81200000A8DF81A00BDF898
:104560001200C0B28DF81B00BDF81400000A8DF8CF
:104570001C00BDF81400C0B28DF81D00AA4949689E
:10458000087806AB06221146FCF729FA10B14FF065
:10459000FF3045E7002043E70146A348007A30B1E9
:1045A000012807D0022809D003280FD10AE0FA20F9
:1045B00008800EE04FF4FA7008800AE04FF47A7039
:1045C000088006E04FF4FA60088002E000200880CE
:1045D00000BF00BF0020704701469348407A30B1C9
:1045E000012807D0022808D003280CD108E00220B7
:1045F00008700BE00420087008E00820087005E04F
:104600001020087002E04FF0FF30704700BF86486E
:10461000C07C18B108784006000E08700020F4E74E
:1046200001468148C07A082817D2DFE800F0170455
:10463000070A0D101318BC20088013E062200880C0
:1046400010E02A2008800DE0142008800AE00A20EB
:10465000088007E00520088004E000BF00BF0020BC
:10466000088000BF00BF0020704701466E4890F8E8
:10467000240010B14FF0FF3070476B48C0890880AC
:104680000020F9E7014600200880401E70470146DF
:104690004FF0FF30704701466348007A30B101287F
:1046A00007D0022808D003280CD108E05F48086032
:1046B0000BE05F48086008E05E48086005E05E487F
:1046C000086002E04FF0FF30704700BF0020FBE7BA
:1046D00001465548407A30B1012808D002280AD056
:1046E000032810D10BE04FF4804008800EE041F623
:1046F0009C7008800AE04FF48050088006E04FF478
:104700000060088002E04FF0FF30704700BF46486D
:10471000C07C10B10888401008800020F5E70146F1
:104720004148007C08700020704701463E48807A6E
:1047300010B10120087001E00020087000207047CF
:1047400038B504463848807A10B94FF0FF3038BD8C
:10475000354A1268117C344A526810786B4602223E
:10476000FCF78CF910B14FF0FF30F0E79DF8010035
:104770009DF8001040EA012000B220800020E6E70A
:104780002DE9FE4F0746884692461D46DDF830B0BB
:1047900000260024244890F8240010B1601EBDE8D3
:1047A000FE8F002028702048807A10B94FF0FF302B
:1047B000F5E71D48007C10B94FF0FF30EFE71A48CD
:1047C000007C00F0400008B1B01CC6B21648007C66
:1047D00000F0200008B1B01CC6B21348007C00F005
:1047E000100008B1B01CC6B20F48007C00F00800F1
:1047F00008B1B01DC6B20C4A1268917A0A4A5268D2
:1048000010786B460222FCF739F910B14FF0FF30F7
:10481000C5E79DF801009DF8001040EA0129B14567
:104820000CDA0020BBE700009400002000000343E6
:10483000000083423333034233338341FC484068F2
:104840004088B9EB600F17DDF94A1268517CF84ACD
:10485000526810786B460122FCF710F910B14FF046
:10486000FF309CE79DF8000000F0100020B1FFF73A
:10487000BDF96FF0010092E75046FEF782FEEC4A68
:104880001268D17AEA4A526810786B463246FCF7D1
:10489000F5F810B14FF0FF3081E799FBF6F0401EBC
:1048A0008BF8000000202870B4422AD0E048007C39
:1048B00000F0080028B3601C1DF800001DF804106B
:1048C00040EA012000B2A8F80000E01C1DF800102A
:1048D000A01C1DF8000041EA002000B2A8F8020068
:1048E000601D1DF80010201D1DF8000041EA002089
:1048F00000B2A8F80400287840F008002870A01D35
:1049000084B2B44213D0CA48007C00F0400070B1B9
:10491000601C1DF800001DF8041040EA012000B2E0
:104920003880287840F040002870A01C84B2B4423F
:1049300013D0BF48007C00F0200070B1601C1DF84F
:1049400000001DF8041040EA012000B278802878A9
:1049500040F020002870A01C84B2B44213D0B448A8
:10496000007C00F0100070B1601C1DF800001DF804
:10497000041040EA012000B2B880287840F010000E
:104980002870A01C84B2002009E7F8B504460F4641
:104990001646A74890F8240010B94FF0FF30F8BD34
:1049A000A348807A10B94FF0FF30F8E7A04A1268A8
:1049B000917A9F4A526810786B460222FCF75EF8A3
:1049C00010B14FF0FF30EAE79DF801009DF80010AC
:1049D00040EA0125A54203DA00203070401EDEE7E0
:1049E000934840684088B5EB600F17DD904A126825
:1049F000517C8F4A526810786B460122FCF73EF8D2
:104A000010B14FF0FF30CAE79DF8000000F0100031
:104A100020B1FFF7EBF86FF00100C0E7E2B2844B82
:104A20001B68D97A824B5B6818783B46FCF726F8FE
:104A300010B14FF0FF30B2E795FBF4F0401E30703C
:104A40000020ACE701467A4880F822100020704729
:104A50007CB5054676494968087801AB04220D21EA
:104A6000FCF70CF808B107207CBD9DF80700C0F3E7
:104A700001109DF8041001F0E00140EAE1008DF81A
:104A800000009DF80700C0F381009DF8051001F0BB
:104A9000E00140EAE1008DF801009DF8070000F018
:104AA00003009DF8061001F0E00140EAE1008DF8F6
:104AB000020000241CE01DF8040018B9002045F88D
:104AC000240013E05B4845F8240006E055F8240074
:104AD000594903F0ABFA45F824001DF80400401EC4
:104AE000C0B20DF804000028F0D100BF601CC4B2B1
:104AF000032CE0DB0020B7E72DE9FE4F06460F460A
:104B000000256846FFF7A4FF002442E056F8240081
:104B100057F82410A0EB010ABAF1000F01DB51464F
:104B200001E0CAF10001084603F020FA83464FF085
:104B30008F4103F0E9F880465DF82400002103F07E
:104B4000A5F916D05DF82410404603F0DDF8824642
:104B50004FF07E5103F068FB814629F0004A374848
:104B6000416A504603F02EFB12D20120A0400543BB
:104B70000EE03248C169404603F024FA05D32F48BD
:104B8000016A404603F01EFB02D20120A04005430B
:104B9000641C032CBADB2846BDE8FE8F2DE9FC5FC0
:104BA00006460F46002522494968087801AB0322D2
:104BB0000D21FBF763FF10B10720BDE8FC9F9DF8B6
:104BC000040000F01F008DF804009DF8050000F0BF
:104BD0001F008DF805009DF8060000F01F008DF8FD
:104BE0000600002462E056F8240057F82410A0EBD9
:104BF000010BBBF1000F01DB594601E0CBF10001D5
:104C0000084603F0B3F94FF08F41009003F07CF8B1
:104C1000814601A8005DC0B30849086803F0BEF9E9
:104C200083465946064803F06FF880460FE00000BF
:104C3000940000207B14AE3E1D5A843F2C84000853
:104C400000B04C45FE49404603F0F0F9804601A80B
:104C5000005D401EC0B201A908550028F2D14146AE
:104C6000484603F051F883464FF07E5103F0DCFADA
:104C700082462AF0004BF3488169584603F0A2FAB5
:104C800013D20120A04005430FE0FFE7ED48016982
:104C9000484603F097F905D3EA484169484603F0CE
:104CA00091FA02D20120A0400543641C032C9ADB38
:104CB000284682E72DE9F04F87B005460C4691461D
:104CC00001208DF8100000208DF81100DE4A1268D6
:104CD000917CDD4A5268107804AB0222FBF77FFE1C
:104CE00020B14FF0FF3007B0BDE8F08FC820FEF7CD
:104CF00024FC00208DF81000D34A1268D17BD24AE0
:104D00005268107804AB0122FBF769FE10B14FF036
:104D1000FF30E8E7CC4A12685179CB4A52681078E4
:104D200004AB0122FBF75BFE10B14FF0FF30DAE776
:104D3000C54A1268917CC44A5268107804AB0122BB
:104D4000FBF74DFE10B14FF0FF30CCE7BE4A1268C2
:104D5000D17DBD4A5268107804AB0122FBF73FFEBB
:104D600010B14FF0FF30BEE7B74A12681179B64A6A
:104D70005268107804AB0122FBF731FE10B14FF0FE
:104D8000FF30B0E70C208DF81000AF4A126811799F
:104D9000AD4A5268107804AB0122FBF720FE10B137
:104DA0004FF0FF309FE70F20FEF7C7FBA648806A51
:104DB000407A8DF81000A44A12689178A24A52688D
:104DC000107804AB0122FBF70AFE10B14FF0FF3060
:104DD00089E79D48806A007A8DF810009A4A126827
:104DE0005178994A5268107804AB0122FBF7F7FD1D
:104DF00010B14FF0FF3076E7B9F1000F07D09248BD
:104E0000806A807A40F0E0008DF8100004E08E485F
:104E1000806A807A8DF810008B4A126891798A4AEC
:104E20005268107804AB0122FBF7D9FD10B14FF0A6
:104E3000FF3058E7B9F1000F07D08348806AC07A85
:104E400040F0E0008DF8100003E07E48C07A8DF855
:104E500010007D4A1268D1797B4A5268107804AB01
:104E60000122FBF7BCFD10B14FF0FF303BE7B9F179
:104E7000000F02D0C820FEF760FB40208DF8100024
:104E8000714A12681179704A5268107804AB012295
:104E9000FBF7A5FD10B14FF0FF3024E778208DF827
:104EA0001000694A12685179674A5268107804AB59
:104EB0000122FBF794FD10B14FF0FF3013E7614979
:104EC0008889FEF73AFB00208DF810005E4A1268D0
:104ED00051795D4A5268107804AB0122FBF77FFDDF
:104EE00010B14FF0FF30FEE6574A1268917A564AE9
:104EF0005268107804AB0222FBF7C0FD10B14FF0EE
:104F0000FF30F0E69DF811009DF8101040EA012BEB
:104F10000C209BFBF0F0C6B20020A86068602860FF
:104F2000A06060602060824665E0474A1268D17ADE
:104F3000454A5268107804AB0C22FBF79FFD10B174
:104F40004FF0FF30CFE69DF811009DF8101040EAB9
:104F5000012000B2ADF808009DF813009DF8121072
:104F600040EA012000B2ADF80A009DF815009DF856
:104F7000141040EA012000B2ADF80C00BDF9081091
:104F8000206808442060BDF90A1060680844606029
:104F9000BDF90C10A0680844A0609DF817009DF8AA
:104FA000161040EA012000B2ADF800009DF819008B
:104FB0009DF8181040EA012000B2ADF802009DF8FB
:104FC0001B009DF81A1040EA012000B2ADF8040061
:104FD000BDF90010286808442860BDF9021068680F
:104FE00008446860BDF90410A8680844A8600AF184
:104FF000010000F0FF0AB24597DB1248D0F800C06C
:105000002868C117090441EA1041070462460023D9
:10501000384601F07CFA32460023CDE9020101F066
:1050200076FA28600748D0F800C06868C1170904FC
:1050300041EA1041070462460023384606E00000BA
:1050400054E3853F2C8400089400002001F05FFAAF
:1050500032460023CDE9020101F059FA6860FE48AA
:10506000D0F800C0A868C117090441EA104107043C
:1050700062460023384601F04AFA32460023CDE961
:10508000020101F044FAA860F348D0F804C0216896
:10509000C817000440EA11480F046246002338464E
:1050A000414601F034FA32460023CDE9020101F015
:1050B0002EFA2060E848D0F804C06068C1170904DF
:1050C00041EA1041070462460023384601F01FFA06
:1050D00032460023CDE9020101F019FA6060DE4892
:1050E000D0F804C0A068C117090441EA10410704C0
:1050F00062460023384601F00AFA32460023CDE921
:10510000020101F004FAA060A068002804DDA06894
:10511000A0F58030A06003E0A06800F58030A060BA
:105120000020E0E538B50446CC4890F82400A042C1
:1051300001D1002038BD24B3C84890F8250010B92B
:105140004FF0FF30F6E70020FEF78AFB0020FEF765
:10515000A9FCC249C88CFEF70EFF00200090BF4991
:10516000496808786B4601222321FBF738FC0121AE
:10517000BA4880F824100120FEF772FBFEF736FDD6
:1051800013E00020FEF76CFBB448007C0090B349AC
:10519000496808786B4601222321FBF720FC002197
:1051A000AE4880F82410FEF721FD0020C2E72DE96B
:1051B000F04F8DB083460F4602200C90A74890F820
:1051C000240020B10020FFF7ADFF012600E00026FB
:1051D00003A8FFF7E1F905A8FFF7FEF901A8FFF71B
:1051E0001FFA02A8FFF741FA9C4890F80AA004A809
:1051F000FFF795FA002407E0002239465846FFF7EA
:1052000059FD00B902E0641C022CF5DB00BF022C42
:1052100001D1002528E0002407E0012206A909A801
:10522000FFF748FD00B902E0641C022CF5DB00BF6B
:10523000022C01D1002517E006A93846FFF75CFCD7
:1052400000F0FF0809A95846FFF7A8FC00F0FF0985
:105250000025B9F1000F01D145F00105B8F1000FAB
:1052600001D145F0020500BFFF207C490872FF21F3
:105270007A484172C1724FF6FF71C181FF2181727C
:10528000017401210173BDF80C00FEF702FF9DF8C7
:105290001400FEF7BCFEBDF80400FEF7C0FDBDF82B
:1052A0000800FEF768FE5046FEF797FB9DF81000D9
:1052B000FEF780FD16B10120FFF734FF28460DB040
:1052C000BDE8F08FF8B504460D46164616B94FF006
:1052D000FF30F8BD6148807A10B94FF0FF30F8E731
:1052E00020128DF80000E0B28DF801009DF8010059
:1052F00028445A4949684989884202DD4FF0FF3005
:10530000E7E7564A1268117E544A526810786B4695
:105310000222FBF764FB10B14FF0FF30D9E7EAB28D
:105320004E4B1B68597D4D4B5B6818783346FBF735
:1053300056FB10B14FF0FF30CBE70020C9E7F8B5BE
:1053400004460D46164616B94FF0FF30F8BD4348E7
:10535000807A10B94FF0FF30F8E720128DF8000086
:10536000E0B28DF801009DF8010028443B494968EE
:105370004989884202DD4FF0FF30E7E7374A12687B
:10538000117E364A526810786B460222FBF727FBE3
:1053900010B14FF0FF30D9E7EAB2304B1B68597DAE
:1053A0002E4B5B6818783346FBF768FB10B14FF063
:1053B000FF30CBE70020C9E72DE9F04385B0054673
:1053C0000E4690469946254890F8250020B14FF0AA
:1053D000FF3005B0BDE8F08316B94FF0FF30F8E7B5
:1053E000002423E0281B102801DD102000E0281BEA
:1053F00087B2321939462046FFF764FF10B14FF0EB
:10540000FF30E6E701AA39462046FFF798FF10B1C2
:105410004FF0FF30DDE730193A4601A901F018F9E5
:1054200010B16FF00100D4E7E01984B2AC42D9DBCF
:105430004FEA28208DF8000008F0FF008DF80100E9
:10544000064A1268917E054A526810786B4602221D
:10545000FBF7C5FA38B103E02C8400089400002063
:105460004FF0FF30B5E701218A4880F82510A0F8F9
:1054700026900020ADE70146864890F82400087089
:105480000020704702464FF0FF30704701464FF052
:10549000FF307047F8B505460F461446002C70D013
:1054A000B5F5FF5F01DDFF2605E0202D01DA0126BD
:1054B00001E0C5F3471607B90127282C02DD4FF09C
:1054C000FF30F8BD7348407D28BB724890F8240037
:1054D00038B10020FFF726FE01216E4880F8201029
:1054E00003E000216B4880F820106A481630FFF76F
:1054F00053F868481830FFF76FF866481A30FFF71E
:105500008FF864481C30FFF7B0F86248817A8177E1
:105510001F30FFF704F90020FEF7A2F90020FEF784
:10552000BDFC00208DF800005A4A12689178594A53
:10553000526810786B460122FBF751FA10B14FF018
:10554000FF30BEE740208DF80000524A1268D17B40
:10555000504A526810786B460122FBF740FA00B1BE
:1055600065E08DF800608DF801704A4A1268117A82
:10557000484A526810786B460222FBF730FA08B1AD
:1055800055E047E00520FDF7D8FF4248407A072163
:1055900001EBC000C0B28DF800003E4A1268D1791C
:1055A0003C4A526810786B460122FBF718FA00B1AA
:1055B0003DE020208DF80000012C03D100208DF863
:1055C00001000EE0052C03DC01208DF8010008E04D
:1055D000142C03DC02208DF8010002E003208DF87A
:1055E00001009DF80100072101EB8010C0B28DF889
:1055F0000100284A1268917C264A526810786B464E
:105600000222FBF7ECF900B111E0012121484175BC
:10561000002056E71F4A1632002103E0505C00B11B
:1056200005E0491C0C29F9D34FF0FF3049E7FF2072
:1056300018490872FF2117484172C1724FF6FF7175
:10564000C181FF2181720174012101730146887FAC
:10565000FEF7C3F90F49C88AFEF71BFD0D49087E06
:10566000FEF7D5FC0B49488BFEF7D9FB0949888B1F
:10567000FEF781FC0749C87FFEF79CFB054890F8C0
:10568000200010B10120FFF74DFD002101484175B8
:10569000002016E79400002010B5C8234FF4806264
:1056A000F74940F6F630FFF787FE10BD10B586B01B
:1056B0000446F4A000680390F3A000680290F3A0F1
:1056C00000680190F2A00068009004F0030003A9B4
:1056D000085C8DF8140003A8C4F3C101405C8DF888
:1056E000150003A8C4F38111405C8DF8160004F086
:1056F000030002A9085C8DF8100002A8C4F3C101E0
:10570000405C8DF8110002A8C4F38111405C8DF853
:10571000120005AA032140F22640FFF7D3FD18B17D
:105720004FF0FF3006B010BD04AA032140F22A401A
:10573000FFF7C8FD10B14FF0FF30F3E70198059077
:105740000098049004F0040058B19DF8140040F053
:1057500001008DF814009DF8100040F001008DF854
:10576000100004F0200058B19DF8150040F0010031
:105770008DF815009DF8110040F001008DF8110022
:1057800004F4807058B19DF8160040F001008DF8C7
:1057900016009DF8120040F001008DF8120005AAD5
:1057A00003214FF48860FFF78DFD10B14FF0FF30FB
:1057B000B8E704AA032140F23140FFF783FD10B19E
:1057C0004FF0FF30AEE7B34804810020AAE71FB5D1
:1057D0000446B048007A00F0030054F8200001901D
:1057E000AC48007A00F0040010B1019840420190EA
:1057F000A848007AC0F3C10054F820000290A548E0
:10580000007A00F0200010B1029840420290A148B6
:10581000007AC0F3811054F8200003909D4800895D
:1058200000F4807010B10398404203909A490198A7
:1058300080FB0101800F40EA8100019096490298A7
:1058400080FB0110820042EA917002909249039815
:1058500080FB0110820042EA917003900198000ED3
:105860008DF800000198000C8DF801000198000AE5
:105870008DF802000198C0B28DF803006A46042139
:105880004FF47470FFF71EFD18B14FF0FF3004B0F5
:1058900010BD0298000E8DF800000298000C8DF8E3
:1058A00001000298000A8DF802000298C0B28DF83B
:1058B00003006A4604214FF47570FFF703FD10B131
:1058C0004FF0FF30E3E70398000E8DF800000398D7
:1058D000000C8DF801000398000A8DF8020003986F
:1058E000C0B28DF803006A4604214FF47670FFF7CA
:1058F000E9FCCCE770B588B0064601A8FEF7E8FEE3
:10590000BDF804000021C90341EA5045C4036148C1
:10591000007A00F0030056F8200005905D48007AF8
:1059200000F0040010B10598404205905948007AF3
:10593000C0F3C10056F8200006905648007A00F0E7
:10594000200010B10698404206905248007AC0F3F9
:10595000811056F8200007904E48008900F48070AE
:1059600010B10798404207900598C117A0FB042387
:1059700001FB043100FB0510810041EA92700590A3
:105980000698C117A0FB042301FB043100FB05109E
:10599000810041EA927006900798C117A0FB04238A
:1059A00001FB043100FB0510810041EA9270079071
:1059B0000598000E8DF808000598000C8DF8090078
:1059C0000598000A8DF80A000598C0B28DF80B0002
:1059D0000698000E8DF80C000698000C8DF80D004E
:1059E0000698000A8DF80E000698C0B28DF80F00D8
:1059F0000798000E8DF810000798000C8DF8110024
:105A00000798000A8DF812000798C0B28DF81300AD
:105A100002AA0C214FF42570FFF754FC08B070BDAA
:105A200030B585B004461DA207CA02AB07C3C82C17
:105A300003DD4FF0FF3005B030BDC82090FBF4F01F
:105A4000401E85B2280A8DF80000E8B28DF80100EA
:105A50006A46022140F21620FFF734FC10B14FF0E5
:105A6000FF30E8E702AA0C2140F6C120FFF72AFC2C
:105A700010B14FF0FF30DEE7064884810020DAE7FE
:105A8000548400084CCD6C000CC92C0036567600AE
:105A900026466600C802002009E3CA02FEF2ABC433
:105AA000AAF1DFDFBBAFDFDF0146FC488089088059
:105AB000002070472DE9FC4706460F4606F0070018
:105AC00010B1B7F5C86F03DD4FF0FF30BDE8FC87BC
:105AD000384602F063FA8146F14902F015F9804632
